:020000040000FA
:0600000079EF13F012007D
:0608000079EF13F0120075
:06080800E3EF0FF0120007
:060818003DEF10F012009C
:06082A0002006C27000033
:10083000CE000000050000006A270000D300000081
:0408400002000000B2
:0C0844005EEC09F0FB0EDBCFF3FFDB06DF
:10085000F35000090AE0ACEC09F0FA0E17EC0AF0CC
:10086000F3E1151CF1E1010E01D0000E8DEF09F04E
:100870005EEC09F03B0EE12402E3E168E652E16E32
:10088000010EDB6A020EDB6AF90EDBCFF6FFFA0E11
:10089000DBCFF7FFFB0EDBCFF8FF0800F550DF6E74
:1008A000DF5002E1B1EF08F0250EDF5C02E0A4EFBB
:1008B00008F0030EDB6A040EDB6A050EDB6A060E27
:1008C000DB6A070EDB6AC6EC08F02D0EDF5C0CE07D
:1008D0002B0EDF5C09E0200EDF5C06E0230EDF5C00
:1008E00003E0300EDF5C1AE1DF50300A14E0130A37
:1008F0000FE0030A0AE00B0A05E0060AE4E1030E32
:10090000DB80E1D7030EDB82DED7030EDB84DBD78F
:10091000030EDB86D8D7030EDB88D5D72A0EDF5C23
:100920001BE1C2EC08F010EC09F010E0030EDB80D4
:1009300008680968130EDBCF0DF0140EDBCF0EF044
:1009400023EC11F0040E06C0DBFF03D0130EF9EC0C
:1009500008F0C6EC08F00BD0090EDB6A67EC09F072
:1009600003E0DBEC09F0FAD7090EF9EC08F0030E0E
:10097000DBB0DB982E0EDF5C1BE1C6EC08F02A0E24
:10098000DF5C0BE1C2EC08F010EC09F003E1130EA0
:100990004BEC09F0C6EC08F00BD0090EDB6A67ECF3
:1009A00009F003E0DBEC09F0FAD7090E4BEC09F093
:1009B000680EDF5C07E1C6EC08F0680EDF5C1DE145
:1009C000030E18D0740EDF5C17E07A0EDF5C14E0C3
:1009D000480EDF5C06E0540EDF5C03E05A0EDF5C7D
:1009E00002E1020E07D06C0EDF5C03E06A0EDF5CF2
:1009F00004E1010E9EEC09F0C9DBDF506E0A01E153
:100A00007FD31E0A01E192D1200A01E18FD13F0A72
:100A100001E149D11A0A01E146D10D0A01E143D1B0
:100A2000200A01E140D13A0A01E13DD1200A01E169
:100A30003AD1260A01E135D10D0A01E132D11A0A73
:100A400001E1D9D0200A4AE0300A1FE0460A0EE050
:100A5000250A01E083D3D950F90FE96EFF0EDA20A1
:100A6000EA6E010EEE5E000EEE5AEE5AACEC09F0A4
:100A7000250EE66E95DB03E1151C01E169D3A8ECB8
:100A800009F001E26BD3DB2A69D3080EDB6A040E9E
:100A9000DB50010806E2040EDB0470EC09F0DB50C9
:100AA0008BDB080EDB5009E0030EDB50010B05E188
:100AB00072DB01E04DD3080EDB6A64DBEFCFDFFFB2
:100AC00020EC0AF003E1151C01E142D3A8EC09F087
:100AD00001E3DB2A60DB01E141D33AD3070EDB50AF
:100AE00002080FE1ECEC09F0030EB3EC09F00E0E76
:100AF000EECFDBFF0F0EEECFDBFF100EEECFDBFFF6
:100B000020D0F70EDBCF17F0F80EDBCF18F0020E77
:100B1000175E000E185AF70E17C0DBFFF80E18C04C
:100B2000DBFF17C0E9FF18C0EAFFA3EC09F0166A63
:100B30000E0E14C0DBFF0F0E15C0DBFF100E16C02B
:100B4000DBFF0E0EDBCFE6FF0F0EDBCFE6FF100E56
:100B5000DBCFE6FF27EC12F0E552E552E552130E2B
:100B600007C0DBFF140E08C0DBFF060EDB5005E0FC
:100B7000130EE7EC09F001E26ADB0BEC0AF002E28B
:100B8000130E37DBCEEC09F006E0040EE7EC09F0BB
:100B900002E2050E2EDB030EDBB005D0FCDA01E02D
:100BA000D7D2080EDB6A090EDB6A0E0EDBCFF6FF2A
:100BB0000F0EDBCFF7FF100EDBCFF8FF0800F5506C
:100BC000DF6EDF5014E011EC0AF011E220EC0AF0C5
:100BD00003E1151C01E1BCD2BBDB01E3DB2A090EFA
:100BE000DB2AD9500E0FE96E000ECBDBE7D7D3DA44
:100BF00001E1B4D2ADD2C6DA110EEECFDBFF120E98
:100C0000EDCFDBFF110EDBCFE6FF120EDBCFE6FFF1
:100C100019EC12F0E552E552130EF3CFDBFF140E80
:100C2000F4CFDBFF060EDB5004E0130ED0DB01E255
:100C30000EDB0BEC0AF002E2130EDBDAAFDB05E0B1
:100C4000040EC5DB02E2050ED4DA030EDBB005D0DC
:100C5000A2DA01E07DD2080EDB6A090EDB6A110E12
:100C6000DBCFE9FF120EDBCFEAFFEFCFDFFFDF5074
:100C700014E0D7DB12E2E4DB03E1151C01E168D2EA
:100C800067DB01E3DB2A090EDB2A110EDB2ADBCF4F
:100C9000E9FF120EE8E3DB2AE6D77DDA01E15ED256
:100CA00057D2030EDB8E070EDB0410E195DB040E3A
:100CB0005ADB0A0EEECFDBFF0B0EEECFDBFF0C0E86
:100CC000EECFDBFF0D0EEECFDBFF6CD0070EDB505F
:100CD00003082CE1030EDBAE0DD0B2DA020E76DA99
:100CE000EFCF14F0156A166A176A14AE39D015687A
:100CF000166835D0F70EDBCF15F0F80EDBCF16F007
:100D0000020E155E000E165AF70E15C0DBFFF80E28
:100D100016C0DBFF15C0E9FF16C0EAFFEFCF14F0E5
:100D20000A0E14C0DBFF0B0EDB6A38D0070EDB5057
:100D3000020809E1030EDBAE04D059DB16AE10D079
:100D40000ED055DB0DD0030EDBAE12D079DA020ED9
:100D50003DDAF9DA166A176A15AE02D01668176816
:100D6000E2DA0C0E16C0DBFF0D0E17C0DBFF1AD047
:100D7000F70EDBCF16F0F80EDBCF17F0020E165E83
:100D8000000E175AF70E16C0DBFFF80E17C0DBFF78
:100D900016C0E9FF17C0EAFFD6DAC5DA0C0EDB6A27
:100DA0000D0EDB6A060EDB5005E1010EF36E050E3B
:100DB000F3CFDBFF150EDB6A160EDB6AD950370F57
:100DC000146E000EDA20156E390E14C0DBFF3A0ED9
:100DD00015C0DBFF380EDB6A080EDB6A0A0EAEDADE
:100DE000DF50780A12E0200A10E0280A0CE0200AFE
:100DF0000AE03F0A06E00D0A02E0200A08E1020EBE
:100E000005D0080E03D0080EDF26100E97DA030E69
:100E1000DBBE02D0DB92DB94DB50800B24E08ADA6D
:100E2000D890030EEB50000A08E6000EEE5C000EB0
:100E3000EE58000EEE58000EEE5815E213DA0B686D
:100E40000C680D680E68E1EC11F00A0E02C0DBFFC1
:100E50000B0E03C0DBFF0C0E04C0DBFF0D0E05C044
:100E6000DBFF2D0E08D0030EDBA202D02B0E03D029
:100E7000DBA408D0200EF36E170EF3CFDBFF150EA8
:100E8000DB2A02D0170EDB6A050EDB5003E1B7D96F
:100E900001E189D0460E146E270E156E000E166EF7
:100EA000070EDBCF17F0186A196A1A6A17C00BF021
:100EB00018C00CF019C00DF01AC00EF0D3D97DEC9B
:100EC00012F014500224F36E15500320F46E1650E5
:100ED0000420F86EF4CFF7FFF3CFF6FF0800090EF9
:100EE000F5CFDBFF580EDF5C0FE1610EF36E090EEC
:100EF0007BD90AE3200E146E090EDBCFE7FF1450F6
:100F0000E75E090EE7CFDBFF070EDBCF14F0156AB3
:100F1000166A176A0FDA14C00BF015C00CF016C071
:100F20000DF017C00EF0EECF06F0EECF07F0EECFCB
:100F300008F0EFCF09F07DEC12F009C0EDFF08C01A
:100F4000EDFF07C0EDFF06C0EFFF390EDBCFE9FF75
:100F5000DB063A0EDBCFEAFF01E2DB06090EDBCF50
:100F6000EFFF150EDB2A4BD995E1030EDBA61DD052
:100F70006F0EDF5C06E1C1D918E3150EDB285BDAE2
:100F800014D0780EDF5C09E0580EDF5C06E0620EDC
:100F9000DF5C03E0420EDF5C08E1020EF36E160E2A
:100FA000F3CFDBFF02D0150EDB6A030EDB50100B14
:100FB0000EE0040EDBCF14F0050EDB50D880145485
:100FC00006E2060EDB5003E1040EDB5034DA95D95D
:100FD0000AE2050EDBCFE7FF150EDB50E75E050EDC
:100FE000E7CFDBFF02D0050EDB6A040EDBCF14F087
:100FF000160E45D9D880145414E2160EDBCFE6FF46
:10100000150EDBCFE6FF040EDBCFE6FF050EDB504F
:10101000E552E75CE552D880E754E552D880E754C2
:101020005FD9030EDB50010B0BE1080EDB5008E02B
:10103000B2D801E08DD0080EDB50BED8080EDB6AB6
:10104000170EDB5007E088D9170EF1D903E1151C04
:1010500001E17ED0160EDB5016E07ED9300EE66E32
:101060009FD802E1151C74E077D9DFCFE6FF9FEC33
:1010700011F0E552E552E552F4CF15F00001F31CF2
:1010800002E1151C65E0050EDBCF14F0160EDB50F7
:10109000D880145409E2050EDBCFE7FF160EDB50B3
:1010A000E75E050EE7CFDBFF300EE66E050ECBD90F
:1010B0004FE1390EDB2ADBCFE9FF3A0E01E3DB2AF1
:1010C000DBCFEAFF090EEFCFDBFFDB500EE044D9A8
:1010D000090EADD902E1151C3BE0390EDB2ADBCF4E
:1010E000E9FF3A0EEDE3DB2AEBD755D831E1160ED6
:1010F000DBCFE6FF080EC3D8E552E7245DD82ED03B
:10110000070EDB50030A1CE0010A14E0030A07E0A3
:101110007BD9DBCFEEFF020EDBCFEDFF1FD0F5D882
:10112000196A17AE02D0186819682CD8BCD819C033
:10113000EEFF14D0EAD817BE186824D8B4D80ED061
:1011400063D9DBCFEFFF0AD07BD905E1151C03E1A2
:10115000F368F46810D0FCD801E3DB2A79D94DEFAD
:1011600004F0010EDBCF14F0020EDBCF15F014C03B
:10117000F3FF15C0F4FF3B0EE15C02E2E16AE552C9
:10118000E16ECBD029D9020EB3EF09F061D9080086
:10119000F550DF6E1200200EE66E080E23EF0AF007
:1011A0009FEC11F0E552E552E552F3CF14F0F4CF85
:1011B00015F00001F31C1200146E156AD950010FCE
:1011C0004DD91450EE261550ED221200185E000E77
:1011D000195AF70E18C0DBFFF80E19C0DBFF18C054
:1011E000E9FF19C0EAFF1200DBCFF4FFF350F45C13
:1011F0001200DB50E76E040EE7CFDBFF12000A0E91
:10120000DBCF14F00B0EDBCF15F00C0EDBCF16F09E
:101210000D0EDBCF17F0145015101610171012001A
:10122000130EEECFDBFF140EEDCFDBFF130EDBCF83
:1012300014F0140EDBCF15F00001800E151412000F
:10124000F70EDBCF18F0F80EDBCF19F01200050E09
:10125000DB50E66ED950130F01D9E552E750EE6E20
:10126000ED6A12000A0EDBCF06F00B0EDBCF07F0A3
:101270000C0EDBCF08F00D0EDBCF09F01200DBCF38
:10128000E6FF150EDBCFE6FF050EDB50E552E72447
:10129000E552E7241200DB50CED8010EF36E060EA5
:1012A000F3CFDBFF1200EE50EFCFEAFFE96E16C07E
:1012B000EEFF17C0EEFF18C0EEFF1200D9CFE6FF19
:1012C000DACFE6FFE1CFD9FFE2CFDAFF1200DFCFBE
:1012D000E6FFE66A57EC13F0E552E552F3501200D0
:1012E000E76E080EE7CFDBFF1200EECF14F0EECF73
:1012F00015F0EFCF16F0176A1200050EDBCF14F0D1
:10130000150EDB50D88014541200010EDBCF16F0FE
:10131000020EDBCF17F0186A1200E552E5CFDAFFB4
:10132000E7CFD9FF12000A0E14C0DBFF0B0E15C069
:10133000DBFF1200D9500A0F2EEF0AF0F36E070EF2
:10134000F3CFDBFF1200EECF14F0EFCF15F0120059
:10135000010EDB2A020E1200FC0EDBCFE6FFFD0EB3
:10136000DBCFE6FF1200145E000E155AF70E14C014
:10137000DBFFF80E15C0DBFF14C0E9FF15C0EAFF64
:101380001200DA20EA6EEF2AEECFF6FF000EEF220F
:10139000EECFF7FFEF22EECFF8FF1200040EDBCF07
:1013A000E6FF130EDB50E552E75C9ADFDB5004DF0B
:1013B000060EDB501200090EDB500A0DF350DF243D
:1013C000D00FE76E090EE7CFDBFFC6EF08F0DB506A
:1013D000F36E050EF4EF08F0F70EDBCF14F0F80E05
:1013E000DBCF15F01200DFCFE6FFD0EF08F028DFEB
:1013F000030EECDE75EF09F022EC04F0E552E55245
:10140000E552E55200091200BDDEEE50EFCFEAFFD3
:10141000E96E010E1200130EDB50F36E040EF4EFB2
:1014200008F0040EDB50F36E090EF4EF08F0DBCF8A
:10143000E6FFD0EF08F0E76E050EE7CFDBFF120006
:101440008BDFF3EF09F0DBCFE6FF86DFFCEF09F07F
:10145000D950F90FE96EFF0EC1EF09F0E96E000EE9
:06146000DA20EA6E120022
:0A14660000019F050FE19BC014F088
:101470009CC015F09B07000E9C5B1450151004E1F6
:101480009F6BE66ADBDAE55211D09BC014F09CC07A
:1014900015F09B2B000E9C23350E141801E11550FE
:1014A00005E1010E9F6FE66EC9DAE5520001A05119
:1014B0000DE19DC014F09EC015F09D07000E9E5BCF
:1014C0001450151002E1010EA06F0DD09DC014F054
:1014D0009EC015F09D2B000E9E230E0E141801E1E8
:1014E000155001E1A06B05D0A9C0FAFF0001A85179
:1014F000F96EFADF1200D9CFE6FFE1CFD9FF080E6F
:10150000E1269BC014F09CC015F0050E0D6E0E6A0E
:1015100014C008F015C009F0FDEC10F008C014F07C
:1015200009C015F0010E1426000E152214C0DEFFAE
:1015300015C0DDFF00019E3504E29D510708000E35
:101540009E5502E2400E01D0000E146E156A14BEC4
:101550001568020E14C0DBFF030E15C0DBFF9BC035
:1015600016F09CC017F0050E0D6E0E6A16C008F03E
:1015700017C009F0FDEC10F004C016F005C017F01C
:1015800000019F0502E1010E01D0000E186E196ADC
:1015900018BE19681850165C146E19501758156E3D
:1015A000040E14C0DBFFD950020FE96EDACFEAFF58
:1015B000000ED880EE54000EED5402E2070E01D06A
:1015C000000E166E176A16BE176816509D5D146ED3
:1015D00017509E59156E050E14C0DBFF020EDBCFAF
:1015E00016F0030EDBCF17F0DE501624146EDD501C
:1015F0001720156EA1C018F0196A18BE1968185086
:10160000141802E11950151807E005D0ABC0FAFF15
:101610000001AA51F96EFADF020EDBCF16F0030EBD
:10162000DBCF17F0DE501624146EDD501720156E38
:1016300014C0A1F0060EDB6A080EF36E060EDBCFB7
:10164000F4FFF350F45C57E2050EDB50F36E060E28
:10165000DBCFF4FFF350F45C43E3060EDBCF14F072
:10166000050EDB28D88014543BE3040EDB500AE15E
:10167000060EDB50EA6ABC0FE96E000EEA22180E75
:10168000EF6E2DD0040EDB040AE1060EDB50EA6A91
:10169000BC0FE96E000EEA220C0EEF6E20D0040E95
:1016A000DB5002080AE1060EDB50EA6ABC0FE96E65
:1016B000000EEA22060EEF6E12D0040EDB50030875
:1016C0000AE1060EDB50EA6ABC0FE96E000EEA2260
:1016D000030EEF6E04D0040EDB50040800E108D0C6
:1016E000060EDB50EA6ABC0FE96E000EEA22EF6AD2
:1016F000060EDB2AA1D79CDA020EDBCF16F0030E12
:10170000DBCF17F0DE501624146EDD501720156E57
:101710001450E66E4BEC0FF0E552020EE66EFFEC55
:101720000EF0E552080EE15C02E2E16AE552E16E7C
:10173000E552E7CFD9FF1200FF0E0001A15D0AE0DC
:10174000A1C0E6FF4BEC0FF0E552200EE66EFFEC79
:101750000EF0E552120000019205146E156A9D51BB
:10176000141802E19E51151809E09251166E176A7D
:101770009D51161802E19E51171802E1A06B02D08C
:10178000010EA06F12000001660EA26F140EA36F6F
:10179000F60EA86F140EA96F380EAA6F170EAB6F56
:1017A000560EA46F170EA56FA1699F6BA06B9B6B64
:1017B0009C6B9D6B9E6B05D0A9C0FAFF0001A851E0
:1017C000F96EFADF12000001D00522E184A21DD0DB
:1017D0008380D06B00019251000816E2060E925DE4
:1017E0000AE1010EE66E05D09AC0FAFF0001995198
:1017F000F96EFADFE5520001920705D098C0FAFFB2
:1018000000019751F96EFADF02D0D06B839012D0AD
:1018100083908450020B0EE0020ED05D0BE02A0E86
:10182000E66E7C0EE66EDEEC12F0E552E55200014B
:10183000020ED06F0001D10521E184A41CD0838267
:10184000D16B0B0E0001925D15E2050E925D09E170
:10185000E66A05D09AC0FAFF00019951F96EFADFE5
:10186000E5520001922B05D098C0FAFF0001975174
:10187000F96EFADF02D08392D16B11D0839284503B
:10188000040B0DE0020ED15D0AE0000EE66EE66A82
:10189000C2EC12F0E552E5520001020ED16F1200C7
:1018A000D9CFE6FFE1CFD9FFFE0EDB5014E1E66AA7
:1018B0004BEC0FF0E552200EE66EFFEC0EF0E55219
:1018C0000C0EE66E4BEC0FF0E552200EE66EFFECD0
:1018D0000EF0E55214D0400EE66E4BEC0FF0E552E0
:1018E000200EE66EFFEC0EF0E5524C0EE66E4BEC71
:1018F0000FF0E552200EE66EFFEC0EF0E552E552D9
:10190000E7CFD9FF1200D9CFE6FFE1CFD9FF020E12
:10191000E126DF6A060E146E14C00EF092C009F0C4
:1019200095EC13F0010E05C0DBFFDF6A080EDF5CEB
:101930001CE2010EDB50DF5C06E3010EDB50020F00
:10194000D880DF5408E2DF50EA6AAC0FE96E000E7F
:10195000EA22EF6A08D0DF50EA6AAC0FE96E000EA7
:10196000EA22030EEF6EDF2AE1D7DF6A080EDF5CA2
:101970001CE2010EDB50DF5C06E3010EDB50020FC0
:10198000D880DF5408E2DF50EA6AB40FE96E000E37
:10199000EA22EF6A08D0DF50EA6AB40FE96E000E5F
:1019A000EA22180EEF6EDF2AE1D742D9060E0001B7
:1019B000925D02E3400E01D0000EE66E4BEC0FF09C
:1019C000E552E66AFFEC0EF0E552060E0001925D6C
:1019D00002E34C0E01D00C0EE66E4BEC0FF0E5521C
:1019E000010EE66EFFEC0EF0E552020EE15C02E243
:1019F000E16AE552E16EE552E7CFD9FF1200D9CF97
:101A0000E6FFE1CFD9FF0001C60E936F170E946F6A
:101A1000060E976F190E986FA00E996F180E9A6F99
:101A2000FE0EDBCF92F005D098C0FAFF000197516F
:101A3000F96EFADFE552E7CFD9FF1200D9CFE6FF02
:101A4000E1CFD9FFFE0EDB5028E1000192059EAFE9
:101A500002D0D89003D09D5D000E9E5919E3030E6D
:101A60009225146E156A15509E19E8AE02D09E3567
:101A700004D09D51145C9E5115580AE305D0A5C0B1
:101A8000FAFF0001A451F96EFADF010E2FD02ED01B
:101A90000001CE2B2FD8020E29D0000192059EAF57
:101AA00002D0D89003D09D5D000E9E591AE3030E1C
:101AB0009225146E156A15509E19E8AE02D09E3517
:101AC00004D09D51145C9E5115580BE305D0A5C060
:101AD000FAFF0001A451F96EFADF010E07D0000EE3
:101AE00005D00001CF2B06D8020E00D0E552E7CF7B
:101AF000D9FF1200D9CFE6FFE1CFD9FF050EE126CD
:101B00000001CE51010804E30001CF5101082FE28A
:101B1000D5EC0FF0E66A4BEC0FF0E5520001CE5128
:101B2000010809E29D0EE66E260EE66EB3EC0FF09C
:101B3000E552E55208D08C0EE66E260EE66EB3EC4A
:101B40000FF0E552E552040EDB6A0A0EF36E040E46
:101B5000DBCFF4FFF350F45C08E2A00EE66E16EC67
:101B600013F0E552040EDB2AF0D779EF13F00001F1
:101B7000CF51E66EE66A0001CE51E66EE66A860E49
:101B8000146E260E156E166A14C0E6FF15C0E6FF29
:101B900016C0E6FFD9CFE6FFDACFE6FFA7EC10F0DC
:101BA000176E090EE15E17504D0EE66E4BEC0FF00E
:101BB000E552D9CFE6FFDACFE6FF93EC0FF0E5521E
:101BC000E552050EE15C02E2E16AE552E16EE552A2
:101BD000E7CFD9FF12008EDF0001FE0E956F190EC0
:101BE000966FE66A05D096C0FAFF00019551F96E2E
:101BF000FADFE5520001860EA66F170EA76F05D01B
:101C0000A7C0FAFF0001A651F96EFADF08EF0EF047
:101C100005D094C0FAFF00019351F96EFADF05D0A8
:101C2000A3C0FAFF0001A251F96EFADFF1D712004A
:101C3000D9CFE6FFE1CFD9FF020EE126DAEC0FF0B3
:101C4000DF6A030EDF5C26E2010EDB6A080EF36E2C
:101C5000010EDBCFF4FFF350F45C1AE2DF50080D05
:101C6000F3CF14F0F4CF15F0AC0E1426000E1522AD
:101C7000010EDB500F011424E96E000E1520EA6EF0
:101C8000EF50E66EFFEC0EF0E552010EDB2ADED7D8
:101C9000DF2AD7D7020EE15C02E2E16AE552E16E8B
:081CA000E552E7CFD9FF120065
:081CA8000F0EC11295949596F0
:101CB0009598959A959C959E83948396839E839CF4
:101CC000838A8388B40EE66E69EC13F0E55283864E
:101CD0000B0EE66E69EC13F0E55283960B0EE66E82
:101CE00069EC13F0E5520B0EE66E69EC13F0E55269
:101CF00083860B0EE66E69EC13F0E55283960B0EAD
:101D0000E66E69EC13F0E5520B0EE66E69EC13F02B
:101D1000E55283860B0EE66E69EC13F0E55283966E
:101D20000B0EE66E69EC13F0E552839E839C838A6A
:101D3000839883860B0EE66E69EC13F0E55283966A
:101D40000B0EE66E69EC13F0E552280EE66E0BD82A
:101D5000E552060EE66E07D8E5520C0EE66E03D885
:101D6000E552D5EF0FF0D9CFE6FFE1CFD9FF83944D
:101D70008396FE0EDBA802D0838801D08398DBAA6D
:101D800002D0838A01D0839ADBAC02D0838C01D04D
:101D9000839CDBAE02D0838E01D0839E83860B0EA4
:101DA000E66E69EC13F0E55283960B0EE66E69EC75
:101DB00013F0E552FE0EDBA002D0838801D0839899
:101DC000DBA202D0838A01D0839ADBA402D0838C69
:101DD00001D0839CDBA602D0838E01D0839E8386B4
:101DE0000B0EE66E69EC13F0E55283960B0EE66E71
:101DF00069EC13F0E552E552E7CFD9FF1200D9CFD5
:101E0000E6FFE1CFD9FF83848396FE0EDBA802D0E4
:101E1000838801D08398DBAA02D0838A01D0839A79
:101E2000DBAC02D0838C01D0839CDBAE02D0838EEE
:101E300001D0839E83860B0EE66E69EC13F0E552AB
:101E400083960B0EE66E69EC13F0E552FE0EDBA0F6
:101E500002D0838801D08398DBA202D0838A01D08C
:101E6000839ADBA402D0838C01D0839CDBA602D0B2
:101E7000838E01D0839E83860B0EE66E69EC13F091
:101E8000E55283960B0EE66E69EC13F0E552E552CF
:101E9000E7CFD9FF1200D9CFE6FFE1CFD9FF839476
:101EA0008396838EFE0EDBA802D0838801D08398B0
:101EB000DBAA02D0838A01D0839ADBAC02D0838C68
:101EC00001D0839C83860B0EE66E69EC13F0E5521D
:101ED00083960B0EE66E69EC13F0E552FE0EDBA066
:101EE00002D0838801D08398DBA202D0838A01D0FC
:101EF000839ADBA402D0838C01D0839CDBA602D022
:101F0000838E01D0839E83860B0EE66E69EC13F000
:101F1000E55283960B0EE66E69EC13F0E552E5523E
:101F2000E7CFD9FF1200D9CFE6FFE1CFD9FFFD0EF1
:101F3000DBCFE9FFFE0EDBCFEAFFEF5010E0FD0E36
:101F4000DBCFE9FFFE0EDBCFEAFFEF50E66E57DF97
:101F5000E552FD0EDB2AFE0E01E3DB2AE8D7E5524F
:101F6000E7CFD9FF1200D9CFE6FFE1CFD9FFFD0EB1
:101F7000DBCFF6FFFE0EDBCFF7FF0800F55011E0D8
:101F8000FD0EDBCFF6FFFE0EDBCFF7FF0800F550AE
:101F9000E66E35DFE552FD0EDB2AFE0E01E3DB2A9D
:101FA000E6D7E552E7CFD9FF1200010EE66EDBDE81
:0E1FB000E5521200400EE66ED6DEE55212003B
:021FBE004CECE9
:101FC00012F0EBEF0DF0DACFE4FFE2CFDAFFE9CF6A
:101FD000E4FFEACFE4FFF6CFE4FFF7CFE4FFF5CF6D
:101FE000E4FFF3CFE4FFF4CFE4FFFACFE4FF00EE29
:101FF00000F0140EE80403E3EECFE4FFFBD700EE9D
:1020000014F0070EE80403E3EECFE4FFFBD7E6523B
:10201000F2A40FD02A0EE66E7C0EE66EDEEC12F015
:10202000E552E552020E0001D05D02E1010ED06FD3
:10203000F294E55200EE1AF0070EE80403E3E5CF50
:10204000EDFFFBD700EE13F0140EE80403E3E5CF39
:10205000EDFFFBD7E5CFFAFFE5CFF4FFE5CFF3FFC8
:10206000E5CFF5FFE5CFF7FFE5CFF6FFE5CFEAFFD8
:10207000E5CFE9FFE5CFDAFF1100D8CFE4FFE0CFED
:10208000E4FFE46EDACFE4FFE2CFDAFFE9CFE4FF6A
:10209000EACFE4FFF6CFE4FFF7CFE4FFF5CFE4FFAC
:1020A000F3CFE4FFF4CFE4FFFACFE4FF00EE00F05B
:1020B000140EE80403E3EECFE4FFFBD700EE14F0C8
:1020C000070EE80403E3EECFE4FFFBD7E6529EA041
:1020D00015D00001D22B020ED25D0FE3000EE66E8A
:1020E000E66AC2EC12F0E552E552020E0001D15D43
:1020F00002E1010ED16F0001D26B9E90E55200EE1D
:102100001AF0070EE80403E3E5CFEDFFFBD700EE7E
:1021100013F0140EE80403E3E5CFEDFFFBD7E5CFA2
:10212000FAFFE5CFF4FFE5CFF3FFE5CFF5FFE5CF0D
:10213000F7FFE5CFF6FFE5CFEAFFE5CFE9FFE5CF13
:0E214000DAFFE550E5CFE0FFE5CFD8FF100055
:02214E00D9CFE7
:10215000E6FFDACFE6FFE1CFD9FFE2CFDAFFE652C2
:10216000E652E652E652D950F90F146EFF0EDA200D
:10217000156E020E14C0DBFF030E15C0DBFF020E4E
:10218000DBCFE6FF030EDBCFE6FFF90EDBCFE6FF8A
:10219000FA0EDBCFE6FFFB0EDBCFE6FFD950FC0FDC
:1021A000E66EFF0EDA20E66E38EC04F0146E070ED1
:1021B000E15C02E2E16AE552E16E1450F3CFDEFF2A
:1021C000F4CFDDFFFC0EDBCFE9FFFD0EDBCFEAFF36
:1021D000EF6ADECF14F0DDCF15F014C0F3FF15C0A9
:1021E000F4FF040EE15C02E2E16AE552E16EE552C1
:0A21F000E5CFDAFFE7CFD9FF1200B8
:0621FA00006A0EAE06EFC4
:1022000011F00D6C0E1EE86A0E22001E09AE0EEFD4
:1022100011F0086C091EE86A0922001E2DEC13F06B
:1022200009BE1EEF11F000AE000C086C091EE86A32
:102230000922046C051EE86A0522000C00BE15EF99
:1022400011F00188FF0C09C013F008C012F008500B
:102250000D02F4CF07F0F3CF06F009500E02F4CFD1
:1022600009F0F3CF08F00D02F3500726F4500822CE
:10227000E86A092212500E02F3500726F450082291
:10228000E86A09220EAE49EF11F01250085E1350B1
:10229000095A13AE000C0D50085E0E50095A000C7E
:1022A0002A0EF66E080EF76E000EF86E0001090099
:1022B000F550C96F0900F550CA6F03E1C96701D035
:1022C0003DD00900F550C46F0900F550C56F0900F5
:1022D000F550C66F09000900F550E96E0900F55088
:1022E000EA6E090009000900F550C76F0900F550B2
:1022F000C86F09000900F6CFCBF0F7CFCCF0F8CFCC
:10230000CDF0C4C0F6FFC5C0F7FFC6C0F8FF00019E
:10231000C75302E1C85307E00900F550EE6EC70746
:10232000F8E2C807F9D7CBC0F6FFCCC0F7FFCDC0A5
:0E233000F8FF0001C907000ECA5BBFD71200FC
:02233E00D9CFF5
:10234000E6FFDACFE6FFE1CFD9FFE2CFDAFFFB0EFF
:10235000DBCF14F0FC0EDBCF15F00001800E15145E
:102360001AE1FB0EDBCFE9FFFC0EDBCFEAFFEECF7D
:10237000F3FFEDCFF4FFEE2A000EEF22F3CFE9FFDB
:10238000F4CFEAFFFD0EDBCFEFFFEF50156AF36EDF
:1023900015C0F4FF10D0FB0EDB50FE0806E1FD0E69
:1023A000DBCFE6FF87EC13F005D0FD0EDBCFE6FFB9
:1023B000B3EC13F0E552E552E5CFDAFFE7CFD9FFF2
:0223C000120009
:0E23C20006500B02F3CF02F0F4CF03F00C0232
:1023D000F3500326000EF420046E06500D02F35055
:1023E0000426000EF420056E06500E02F35005265A
:1023F00007500B02F3500326F4500422000E05226E
:1024000007500C02F3500426F450052207500D0229
:10241000F350052608500B02F3500426F450052211
:1024200008500C02F350052609500B02F350052604
:02243000120098
:0E243200FE0EE3CFE9FFFF0EE3CFEAFFF36AF1
:10244000F46AEE5203E0F34AF42AFBD71200FF0EBF
:10245000E3CFF8FFE552FF0EE3CFF7FFE552FF0EA3
:10246000E3CFF6FFE552E66AE66AE66A0900F5524E
:1024700009E0FD0EE32A05E1FE0EE32A02E1FF0E6C
:10248000E32AF4D7FD0EE3CF07F0FE0EE3CF08F00A
:08249000FF0EE3CF09F012007A
:082498000F0EC11294949592FD
:1024A00095908294839083929682968404D854EC7B
:1024B0000EF0D5EF0FF0D08EF29EF28C950EE66EF8
:1024C000FAEC12F0E5522A0EE66E7C0EE66EDEECB9
:1024D00012F0E552E552F184F294FD0EE66EA1ECA5
:1024E00012F0E552000EE66EE66AC2EC12F0E5521A
:0A24F000E5529F909E90F28E1200BC
:0624FA00056A046A036A92
:10250000026A200EE76ED89006360736083609367E
:1025100002360336043605360B50025C0C50035865
:102520000D5004580E50055809E30B50025E0C5034
:10253000035A0D50045A0E50055A062AE72EE4D7C6
:02254000120087
:0E254200D9CFE6FFDACFE6FFE1CFD9FFE2CF37
:10255000DAFFFD0EDB507E0BCD6EFD0EDBAC02D044
:10256000CD8E01D0CD9ECF6ACE6A9E90DBAE02D0DA
:102570009D8001D09D90CD80E552E5CFDAFFE7CF79
:04258000D9FF12006D
:0C258400D9CFE6FFDACFE6FFE1CFD9FFA8
:10259000E2CFDAFFE652E652FC0EDBCFDEFFDBCF06
:1025A000DDFF010EDB50CF6EDF50CE6EE552E552FF
:0C25B000E552E5CFDAFFE7CFD9FF1200BB
:0425BC00D9CFE6FF8E
:1025C000DACFE6FFE1CFD9FFE2CFDAFFE652E652FB
:1025D000FC0EDBCFDEFFDBCFDDFF010EDB50D76E65
:1025E000DF50D66EE552E552E552E5CFDAFFE7CF90
:0425F000D9FF1200FD
:0C25F400D9CFE6FFDACFE6FFE1CFD9FF38
:10260000E2CFDAFFFD0EDB507F0BD56ED76AD66ABC
:10261000F294FD0EDBAE02D0F28A01D0F29AD58E92
:0C262000E552E5CFDAFFE7CFD9FF12004A
:04262C00FF0EE3506A
:102630001C6EEF0E01D0F30EE76EE72E1DEF13F0C8
:102640000C0E1B6EE76AE72E23EF13F01B2E22EF12
:0A26500013F01C2E1BEF13F0120014
:06265A00056A046A100E7F
:10266000E76ED89008360936043605360D50045CFE
:102670000E50055805E30D50045E0E50055A082A09
:06268000E72EF0D7120066
:0A2686002564782564004A6F67613F
:10269000646F7220322076656E636521004A6F6731
:0E26A00061646F7220312076656E63652100E3
:0226AE00F36ACD
:1026B000F46AFF0EE124E96EFF0EE220EA6EED6699
:1026C00007D02F0EEF6404D03A0EEF6001D0F32A4A
:0226D0001200F6
:0E26D200FF0EE3501C6E480E01D04C0EE76E5A
:1026E000E72EFED7E76AE72EFED71C2EF7D70000AD
:0226F0001200D6
:0E26F20013EE00F023EE00F0F86A019C50ECAD
:0E27000011F0B4EC13F0DFEC0FF0FBD7120079
:02270E00FF0EBC
:10271000E350ACBA04D0AF6AAB8EAC8A949CACA246
:0A272000FED7AD6EF36EF46A1200EE
:06272A00056A080EE76ECF
:10273000D890093605360E50055C02E3056E092A6D
:06274000E72EF7D712009E
:0A274600303132333435363738397C
:07275000616263646566002D
:0827580000EE00F00F0EEE6A26
:06276000EA62FDD7120041
:0227660012005F
:0227680012005D
:02276A0000006D
:04276C000000010167
:012770000068
:00000001FF
